:020000040800F2
:1000000000500020DD2F0008B9190008BB190008B6
:10001000BD190008BF190008C11900080000000040
:10002000000000000000000000000000C3190008EC
:10003000C519000800000000C7190008C919000808
:10004000253000082530000825300008253000083C
:10005000253000082530000825300008253000082C
:10006000253000082530000825300008253000081C
:10007000253000082530000825300008253000080C
:1000800025300008253000082530000825300008FC
:1000900025300008253000082530000825300008EC
:1000A00025300008253000082530000825300008DC
:1000B00025300008253000082530000825300008CC
:1000C00025300008253000082530000825300008BC
:1000D00025300008253000082530000825300008AC
:1000E00025300008253000082530000800000000F9
:1000F0000000000000000000000000000000000000
:0C01000000000000000000005FF808F1A3
:10010C000348044B834202D0034B03B1184770479A
:10011C007000002070000020000000000548064917
:10012C000B1AD90F01EBA301491002D0034B03B1F9
:10013C00184770477000002070000020000000007D
:10014C0010B5064C237843B9FFF7DAFF044B13B113
:10015C000448AFF300800123237010BD7000002011
:10016C00000000002830000808B5044B1BB10449FE
:10017C000448AFF30080BDE80840CFE70000000062
:10018C007400002028300008014B1868704700BF2D
:10019C000000002070B50D4E0D4D761BB61006D02C
:1001AC00002455F8043B01349847A642F9D1094E76
:1001BC00094D02F033FF761BB61006D0002455F81B
:1001CC00043B01349847A642F9D170BDBC300008FD
:1001DC00BC300008C0300008BC300008830730B5C4
:1001EC0048D0541E002A3FD00346CAB201E0013C5D
:1001FC003AD303F8012B9D07F9D1032C2DD9CDB29D
:10020C0045EA05250F2C45EA054536D9A4F110021F
:10021C0022F00F0C03F1200EE6444FEA121C03F1FE
:10022C00100242E9045542E9025510327245F8D1E8
:10023C000CF1010214F00C0F03EB021204F00F0C82
:10024C0013D0ACF1040323F003030433134442F83A
:10025C00045B9342FBD10CF003042CB1CAB21C44D6
:10026C0003F8012B9C42FBD130BD64461346002C95
:10027C00F4D1F9E703461446BFE71A46A446E0E773
:10028C0008B410B5002A04469DB031DB4FF402735C
:10029C004FF6FF7CADF814300291069120AB15D0CF
:1002AC00013A0492079202A91F9A0193ADF816C065
:1002BC0000F074F9421C01DA8B2323600022029BAC
:1002CC001A701DB0BDE8104001B07047049207923F
:1002DC0002A91F9A0193ADF816C000F05FF9431CF8
:1002EC0001DA8B2323601DB0BDE8104001B07047CC
:1002FC008B234FF0FF302360F5E700BF0CB410B533
:10030C001E4B00291C689CB033DB4FF402734FF674
:10031C00FF7CADF81430029006901FAB16D001395B
:10032C001E9A04910791204602A90193ADF816C0BC
:10033C0000F034F9421C01DA8B2323600022029B6B
:10034C001A701CB0BDE8104002B0704704910791C0
:10035C0020461E9A02A90193ADF816C000F01EF9B2
:10036C00431C01DA8B2323601CB0BDE8104002B0A3
:10037C0070478B234FF0FF302360F5E7000000201F
:10038C0020F0030110F00300C0F1000051F8043B11
:10039C0000F1040C4FEACC0C6FF000021CBF22FAE7
:1003AC000CF213434FF0010C4CEA0C2C4CEA0C4CA5
:1003BC00A3EB0C0222EA030212EACC1204BF51F89E
:1003CC00043B0430F4D0C2F1000102EA0102B2FA9B
:1003DC0082F2C2F11F0200EBD20070472DE9F04708
:1003EC008F680C469F421D46164638D8824688892F
:1003FC0010F4906F0ED13D4608682A46314600F045
:10040C0091FC0020A2682368D21B2B44A2602360BD
:10041C00BDE8F0874B69096903EB4308236808EBD7
:10042C00D878A3EB01096B1C4FEA68084B44434591
:10043C00424684BF98464246430513D51146504662
:10044C0000F052FD074608B34A46216900F0F4FB60
:10045C00A38923F4906343F08003A38107E01F4634
:10046C000868CAE7504600F09BFD074650B107EB01
:10047C000900A8EB09032761C4F814802F46A36078
:10048C002060BAE75046216900F0C8FC0C23CAF87A
:10049C000030A3894FF0FF3043F04003A381B7E74E
:1004AC002DE9F04F9368914683B0002B6ED01768FE
:1004BC0080460C4608688D68083744E0B4F80CC0D8
:1004CC001CF4906F2ED0D4E90413451A03EB4303AC
:1004DC0003EBD373AA194FEA630A531C53455246D4
:1004EC0084BF9A4652461CF4806F36D01146404663
:1004FC0000F0FAFC00283AD02A462169019000F05D
:10050C009BFBA289019B22F4906242F08002A281A3
:10051C005819AAEB0505A560C4F814A03546B246D7
:10052C00236120605946524600F0FCFBD9F8083094
:10053C00A16820684D1B50449E1BA5602060C9F823
:10054C0008601EB3083757E902B6002EFAD0B54240
:10055C00AA46B3D93546B246E4E7404600F020FD42
:10056C0003460028D4D14046216900F057FC0C23E7
:10057C0000224FF0FF30C8F80030A38943F040034D
:10058C00A381C9E9012203B0BDE8F08F002318460E
:10059C00C9F8043003B0BDE8F08F00BF2DE9F04F6F
:1005AC001C468B890F461D06804692469DB003D58E
:1005BC000B69002B00F0F3800023099330232022D9
:1005CC008DF82A309AF80030039401257B4C8DF875
:1005DC002920002B76D0D14603E019F8013F002BDF
:1005EC0079D0252BF9D1B9EB0A0B77D199F80020EA
:1005FC00002A67D000234FF0FF3209F10109CDE941
:10060C000523049307938DF853301A9304E0001BD1
:10061C0005FA00F018430490CA460522204619F842
:10062C00011B00F0C1FA049B0028F0D1D80644BF8E
:10063C0020228DF85320190748BF2B229AF800105E
:10064C0048BF8DF853202A2956D1039A11680432D9
:10065C00002903927EDB07919AF801100AF1010A36
:10066C002E295BD0DFF858910322484600F09CFA03
:10067C0048B14022049BA0EB090002FA00F00343AE
:10068C000AF1010A04931AF8011B06224D488DF851
:10069C00281000F089FA002862D04B4B002B52D066
:1006AC0003A900913A464046484B04A9AFF3008099
:1006BC000646721C06D0099B334409939AF8003005
:1006CC00002B88D1BB895B064CBF4FF0FF300998DB
:1006DC001DB0BDE8F08FB9EB0A0BF3D05B46524668
:1006EC0039464046FFF77AFE0130EBD0099B99F86A
:1006FC0000205B4409937BE7A1F13002092AAFD8B3
:10070C00079B1AF8011F03EB830302EB4303A1F1D0
:10071C003002092AF5D92E290793A3D19AF8011092
:10072C002A2927D1039B0AF102001A680433002AF4
:10073C000393B8BF4FF0FF339AF80210059282462C
:10074C00B8BF05938EE7039B073323F007030833E9
:10075C000393B0E7494243F00203079104937BE70C
:10076C0003A900913A464046184B04A900F0C6F87C
:10077C0006469EE70023A1F13002092A0AF1010A7C
:10078C0005933FF66FAF1AF8011F03EB830302EBDF
:10079C004303A1F13002092AF5D9059362E7402100
:1007AC0000F0A2FB3860386110B140237B6103E795
:1007BC000C234FF0FF30C8F8003089E78030000878
:1007CC00883000088C30000800000000E9030008A5
:1007DC002DE9F04791461E460A698B680C469A42F1
:1007EC00B8BF1A46C9F8002091F843300546DDF829
:1007FC00208013B10132C9F80020226891065DD522
:10080C00D9F800300233C9F80030226812F0060F14
:10081C0011461ED1E168CB1A002BD8BF114618DD4A
:10082C00002704F1190A06E0D9F80030E268A2EBBF
:10083C00030CBC450CDD0123524631462846C0470B
:10084C00013007F10107EFD14FF0FF30BDE8F08721
:10085C00216894F84330003B18BF01238A060AD55F
:10086C003021E21882F8431094F845105A1C2244A7
:10087C00023382F843103146284604F14302C04744
:10088C000130E1D0236803F00603042B1DD0A368CC
:10089C002269934225DD00279B1A1F4404F11A0993
:1008AC00002401E0BC421CDA01234A4631462846AA
:1008BC00C047013004F10104F4D1C5E712F0060F72
:1008CC0012D0003B18BF0123D5E7D9F80030E168FE
:1008DC002269C91AA36821EAE1779342DCDC00297A
:1008EC00DCDC0020BDE8F087E168D9F80030CB1AD9
:1008FC00002BD8BF114693DCABE700BF2DE9F043CA
:10090C0017460A7E85B00C46064698460C9D01F1AA
:10091C00430C002A33D0A2F15803D9B2202967D84E
:10092C00202B65D8DFE813F0DD0064006400640060
:10093C006400640064006400640064006400A3004C
:10094C006E0064006400640064006E006400640067
:10095C006400640021007F00BF0064006400AE00EE
:10096C0064007F0064006400E40023681A0640F110
:10097C0002812B686269191D29601B681A600023AB
:10098C00E14623613B4621463046CDF8008003AA60
:10099C00FFF71EFF013020D04A4639463046236906
:1009AC00C047013019D02368E0689B07039919D51B
:1009BC00431A002B16DD002504F1190904E0E06848
:1009CC000399431AAB420DDD01234A4639463046A2
:1009DC00C047013005F10105F1D14FF0FF3005B0F2
:1009EC00BDE8F0838842B8BF084605B0BDE8F08387
:1009FC00012384F8422004F142092361002384F886
:100A0C004330BFE72368190602D45A0600F1BF80B1
:100A1C0029680A68043129601146002A6ADB0A2514
:100A2C00DFF87CE110E02368180640F19A802B680F
:100A3C00191D296019686F2A0CBF08250A25DFF8D3
:100A4C0060E1002384F843306268002AA2607DDBF9
:100A5C00236823F004032360002959D1002A77D19D
:100A6C00E146082D63D0ACEB090323618AE7012230
:100A7C002B6804F14209196804332B6084F8421086
:100A8C002261BBE72B6800211A1D2A60D3F8009065
:100A9C006268484600F088F800287FD0A0EB090077
:100AAC0060602061AAE7236843F02003236078226A
:100ABC00DFF8F0E084F845202A68111D296019063A
:100ACC0042D45D0640D51188D80744BF43F02003BB
:100ADC002360002943D12368102523F020032360D1
:100AEC00AFE75823DFF8B8E084F845302368E3E734
:100AFC002368DCE72D2284F8432062684942002AEF
:100B0C00A26002DB23F0040323600A25DFF890E0E7
:100B1C00E146B1FBF5F30A4605FB131019461EF826
:100B2C000030AA4209F8013DF3D2082D9BD123686D
:100B3C00D90798D5626823699A4294DC302309F16D
:100B4C00FF3989F800308EE71168BDE70029DFD145
:100B5C009EF8003004F1420984F8423081E71025F8
:100B6C006FE713F0400F2B6803F1040129600CBFF1
:100B7C00196819885FE713F0400F2B68626903F15D
:100B8C00040129601B6814BF1A801A60F7E62A68F2
:100B9C00B2F9001004322A600A463EE7606880E72A
:100BAC0094300008A83000085FFA81FC810710D04F
:100BBC000346511E2AB90AE09A0718460AD0013991
:100BCC0005D3184613F8012B6245F5D17047002068
:100BDC007047114603290CD80029F8D0034601446C
:100BEC0001E08B42F3D0184613F8012B6245F8D183
:100BFC00ECE7024610B54CEA0C2444EA04441046D7
:100C0C00036804326340A3F1013E2EEA030313F0A0
:100C1C00803F04D1043903291046F0D851B1034662
:100C2C00014401E08B4205D0184613F8012B6245B4
:100C3C00F8D110BD002010BD844641EA000313F02A
:100C4C00030349D1403A23D30B6803604B684360DC
:100C5C008B688360CB68C3600B6903614B6943612C
:100C6C008B698361CB69C3610B6A03624B6A436214
:100C7C008B6A8362CB6AC3620B6B03634B6B4363FC
:100C8C008B6B8363CB6BC36340304031403ADBD218
:100C9C0030320BD30B6803604B6843608B68836006
:100CAC00CB68C36010301031103AF3D20C3205D33C
:100CBC0051F8043B40F8043B043AF9D2043208D012
:100CCC00D2071CBF11F8013B00F8013B01D30B8884
:100CDC0003806046704700BF082A13D38B07B1D03E
:100CEC0010F00303AED0C3F10403D21ADB071CBF10
:100CFC0011F8013B00F8013BA4D331F8023B20F87A
:100D0C00023B9FE7043AD9D3013A11F8013B00F8B2
:100D1C00013BF9D20B7803704B7843708B7883705E
:100D2C006046704788420DD98B1883420AD900EB74
:100D3C00020CBAB1624613F801CD994202F801CD0A
:100D4C00F9D170470F2A0ED8034602F1FF3C4AB185
:100D5C000CF1010C013B8C4411F8012B614503F89B
:100D6C00012FF9D1704740EA01039B074FD1A2F143
:100D7C00100370B501F1200C23F00F0501F1100EDA
:100D8C0000F11004AC441B095EF8105C0EF1100E5F
:100D9C0044F8105C5EF81C5C103444F81C5C5EF883
:100DAC00185C44F8185C5EF8145CE64544F8145C76
:100DBC00EAD1013312F00C0F01EB031102F00F0416
:100DCC0000EB031327D08E46043C24F003064FEAB5
:100DDC00940C1E441C1F5EF8045B44F8045FB44280
:100DEC00F9D10CF1010402F0030203EB840301EBD3
:100DFC00840102F1FF3C4AB10CF1010C013B8C4423
:100E0C0011F8012B614503F8012FF9D170BD034690
:100E1C0002F1FF3C9CE72246EBE700BF002952D0D1
:100E2C0038B551F8043C0C1F002BB8BFE41805462C
:100E3C0000F0F0F82B4A1368002B45D0A3420CD9D4
:100E4C0021686018834228D0636028461460BDE88E
:100E5C00384000F0E1B8A3420FD81A465B68002B6B
:100E6C00F9D11168501884421DD034D3636054609A
:100E7C002846BDE8384000F0CFB811685018A042A1
:100E8C0015D028D8216860188342EFD118685B68A8
:100E9C000144C4E900135460EAE718685B68014434
:100EAC00C4E90013D1E7236819441160E0E7206816
:100EBC000144501883421160DAD1D3E90003014494
:100ECC00C2E90013D4E77047284663601460BDE89C
:100EDC00384000F0A1B80C2328462B60BDE8384000
:100EEC0000F09AB88C000020F8B5CD1C25F0030555
:100EFC0008350C2D38BF0C25002D064623DBA942E6
:100F0C0021D8264F00F086F83A6822B3144603E045
:100F1C0063682246FBB11C4623685B1BF8D40B2B81
:100F2C0015D8636894420CBF3B605360304600F0A8
:100F3C0073F804F10B00231D20F00700C21A01D036
:100F4C001B1AA350F8BD0C2300203360F8BD23609E
:100F5C001C442560EAE77968D1B12946304600F097
:100F6C0047F8431C01460CD0C41C24F00304A042D7
:100F7C0005D03046611A00F03BF8013001D02560F5
:100F8C00D4E70C233046336000F046F80020F8BD5F
:100F9C00304600F02DF87860DFE700BF8C000020B1
:100FAC00F8B51446F9B1CAB106460D4600F036F84C
:100FBC00A04202D32F463846F8BD21463046FFF7F3
:100FCC0093FF07460028F6D022462946FFF734FE49
:100FDC0030462946FFF722FF3846F8BD2746FFF773
:100FEC001DFF3846F8BD1146BDE8F840FFF77CBF41
:100FFC00002238B5064D044608462A6001F0C4FFAD
:10100C00431C00D038BD2B68002BFBD0236038BDAF
:10101C0094000020704700BF704700BF51F8040CCB
:10102C000028A0F10400BCBF0B58C018704700BFCB
:10103C0070B54FF0FF0C4CF4E06C1CEA11541DBF62
:10104C001CEA135594EA0C0F95EA0C0F00F0DEF82D
:10105C002C4481EA030621EA4C5123EA4C5350EA12
:10106C00013518BF52EA033541F4801143F4801363
:10107C0038D0A0FB02CE4FF00005E1FB02E506F0F4
:10108C000042E0FB03E54FF00006E1FB03569CF049
:10109C00000F18BF4EF0010EA4F1FF04B6F5007F4F
:1010AC0064F5407404D25FEA4E0E6D4146EB0606C1
:1010BC0042EAC62141EA55514FEAC52040EA5E504A
:1010CC004FEACE2EB4F1FD0C88BFBCF5E06F1ED8F4
:1010DC00BEF1004F08BF5FEA500E50F1000041EB2B
:1010EC00045170BD06F0004646EA010140EA0200D8
:1010FC0081EA0301B4EB5C04C2BFD4EB0C0541EAFA
:10110C00045170BD41F480114FF0000E013C00F30E
:10111C00AB8014F1360FDEBF002001F0004170BD32
:10112C00C4F10004203C35DA0C341BDC04F114044B
:10113C00C4F1200500FA05F320FA04F001FA05F2D7
:10114C0040EA020001F0004221F0004110EBD370A4
:10115C0021FA04F642EB06015EEA430E08BF20EAD0
:10116C00D37070BDC4F10C04C4F1200500FA04F373
:10117C0020FA05F001FA04F240EA020001F0004105
:10118C0010EBD37041F100015EEA430E08BF20EA78
:10119C00D37070BDC4F1200500FA05F24EEA020EC0
:1011AC0020FA04F301FA05F243EA020321FA04F0EF
:1011BC0001F0004121FA04F220EA020000EBD370A6
:1011CC005EEA430E08BF20EAD37070BD94F0000FA6
:1011DC000FD101F00046400041EB010111F4801FDA
:1011EC0008BF013CF7D041EA060195F0000F18BF8B
:1011FC00704703F00046520043EB030313F4801FC7
:10120C0008BF013DF7D043EA0603704794EA0C0F80
:10121C000CEA135518BF95EA0C0F0CD050EA410696
:10122C0018BF52EA4306D1D181EA030101F0004113
:10123C004FF0000070BD50EA410606BF104619463B
:10124C0052EA430619D094EA0C0F02D150EA013647
:10125C0013D195EA0C0F05D152EA03361CBF104688
:10126C0019460AD181EA030101F0004141F0FE4127
:10127C0041F470014FF0000070BD41F0FE4141F4AB
:10128C00780170BD81F0004102E000BF83F00043A3
:10129C0030B54FEA41044FEA430594EA050F08BF05
:1012AC0090EA020F1FBF54EA000C55EA020C7FEAC9
:1012BC00645C7FEA655C00F0E2804FEA5454D4EB46
:1012CC005555B8BF6D420CDD2C4480EA020281EA10
:1012DC00030382EA000083EA010180EA020281EA48
:1012EC000303362D88BF30BD11F0004F4FEA01319A
:1012FC004FF4801C4CEA113102D0404261EB4101A9
:10130C0013F0004F4FEA03334CEA133302D052422E
:10131C0063EB430394EA050F00F0A780A4F10104EA
:10132C00D5F1200E0DDB02FA0EFC22FA05F2801824
:10133C0041F1000103FA0EF2801843FA05F359410A
:10134C000EE0A5F120050EF1200E012A03FA0EFC89
:10135C0028BF4CF0020C43FA05F3C01851EBE371B3
:10136C0001F0004507D54FF0000EDCF1000C7EEBD0
:10137C0000006EEB0101B1F5801F1BD3B1F5001F0E
:10138C000CD349085FEA30004FEA3C0C04F101042D
:10139C004FEA445212F5800F80F09A80BCF1004F56
:1013AC0008BF5FEA500C50F1000041EB045141EAD8
:1013BC00050130BD5FEA4C0C404141EB0101013CA1
:1013CC0028BFB1F5801FE9D291F0000F04BF014690
:1013DC000020B1FA81F308BF2033A3F10B03B3F162
:1013EC0020020CDA0C3208DD02F1140CC2F10C02F2
:1013FC0001FA0CF021FA02F10CE002F11402D8BF50
:10140C00C2F1200C01FA02F120FA0CFCDCBF41EA1B
:10141C000C019040E41AA2BF01EB0451294330BDEA
:10142C006FEA04041F3C1CDA0C340EDC04F11404C7
:10143C00C4F1200220FA04F001FA02F340EA03009E
:10144C0021FA04F345EA030130BDC4F10C04C4F1E4
:10145C00200220FA02F001FA04F340EA03002946C4
:10146C0030BD21FA04F0294630BD94F0000F83F40E
:10147C00801306BF81F480110134013D4EE77FEAF1
:10148C00645C18BF7FEA655C29D094EA050F08BF3D
:10149C0090EA020F05D054EA000C04BF194610461E
:1014AC0030BD91EA030F1EBF0021002030BD5FEA62
:1014BC00545C05D14000494128BF41F0004130BD8A
:1014CC0014F580043CBF01F5801130BD01F00045DE
:1014DC0045F0FE4141F470014FF0000030BD7FEA51
:1014EC00645C1ABF194610467FEA655C1CBF0B464C
:1014FC00024650EA013406BF52EA033591EA030F63
:10150C0041F4002130BD00BF90F0000F04BF00215A
:10151C00704730B54FF4806404F132044FF000058D
:10152C004FF0000150E700BF90F0000F04BF002106
:10153C00704730B54FF4806404F1320410F000456C
:10154C0048BF40424FF000013EE700BF42004FEA67
:10155C00E2014FEA31014FEA02701FBF12F07F43E4
:10156C0093F07F4F81F06051704732F07F4208BF9B
:10157C00704793F07F4F04BF41F40021704730B5A2
:10158C004FF4607401F0004521F000411CE700BFEE
:10159C0050EA010208BF704730B54FF000050AE071
:1015AC0050EA010208BF704730B511F0004502D572
:1015BC00404261EB41014FF4806404F132045FEA74
:1015CC00915C3FF4D8AE4FF003025FEADC0C18BF1D
:1015DC0003325FEADC0C18BF033202EBDC02C2F10F
:1015EC00200300FA03FC20FA02F001FA03FE40EAA1
:1015FC000E0021FA02F11444BDE600BF4FEA41028D
:10160C00B2F1E04324BFB3F5001CDCF1FE5C0DD954
:10161C0001F0004C4FEAC0024CEA5070B2F1004F9E
:10162C0040EB830008BF20F00100704711F0804FA1
:10163C0021D113F13872BCBF01F00040704741F466
:10164C0080114FEA5252C2F11802C2F1200C10FA6A
:10165C000CF320FA02F018BF40F001004FEAC1234E
:10166C004FEAD32303FA0CFC40EA0C0023FA02F3F2
:10167C004FEA4303CCE77FEA625307D150EA0133C8
:10168C001EBF4FF0FE4040F44000704701F0004098
:10169C0040F0FE4040F40000704700BF4FEA4002AB
:1016AC00B2F1FE4F0FD34FF09E03B3EB12620DD984
:1016BC004FEA002343F0004310F0004F23FA02F0EE
:1016CC0018BF404270474FF00000704712F1610F95
:1016DC0001D1420205D110F0004008BF6FF000406C
:1016EC0070474FF00000704772B6FEE700B591B03E
:1016FC002822002106A8FEF771FD00230193029316
:10170C00039304930593012306934FF480330793BB
:10171C0006A800F067FE70B90F2301930123029312
:10172C00002103910491059101A801F08DF820B9D5
:10173C0011B05DF804FBFFF7D7FFFFF7D5FF0000F2
:10174C0000B58BB000F000FEFFF7D0FF00F05EF8A4
:10175C0000F0CEF800F07CF815E0274A04AB07CA7D
:10176C0003C323F8022B120C1A7004A8FEF708FE10
:10177C004FF0FF3382B204A9204801F09EFB4FF4D6
:10178C007A7000F005FE4FF0FF33029302230193B1
:10179C0009AB0093012300229121194800F000FCB1
:1017AC000028DAD19DF824309DF82500000940EA84
:1017BC000310B0F5006F03DB6FEA00506FEA1050B6
:1017CC00FFF7B2FE00220F4BFFF732FCFFF716FFBC
:1017DC00FFF764FF03460C4A142104A8FEF78EFDA4
:1017EC0004A8FEF7CDFD4FF0FF3382B204A90348E5
:1017FC0001F063FBC3E700BF40300008EC000020A1
:10180C00980000200000B03F4C30000884B00F4B13
:10181C009A6942F020029A619A6902F020020192C0
:10182C00019A9A6942F008029A619A6902F00802D8
:10183C000292029A9A6942F004029A619B6903F03F
:10184C0004030393039B04B0704700BF00100240D5
:10185C0008B50B480B4B03600B4B436000238360B4
:10186C00C3604FF48042026143618361C3610362D0
:10187C0000F0B8FA00B908BDFFF736FFFBE700BF70
:10188C009800002000580040A086010010B586B0DA
:10189C00002302930393049305930268114B9A421D
:1018AC0001D006B010BD104CA36943F00803A3612E
:1018BC00A36903F008030093009B4FF44063029369
:1018CC00122303930323059302A9084801F098F807
:1018DC00E36943F48003E361E36903F48003019358
:1018EC00019BDEE70058004000100240000C014054
:1018FC0008B50A480A4B03604FF4E13343600023F8
:10190C008360C36003610C2242618361C36101F097
:10191C00A4FA00B908BDFFF7E7FEFBE7EC000020D6
:10192C000038014010B586B0002302930393049352
:10193C00059302681A4B9A4201D006B010BD03F50C
:10194C0058439A6942F480429A619A6902F480423F
:10195C000092009A9A6942F008029A619B6903F01E
:10196C0008030193019B4023029302230393032357
:10197C0005930C4C02A9204601F042F880230293F7
:10198C0000230393049302A9204601F039F8064A78
:10199C00536843F0E06343F004035360CDE700BFAA
:1019AC0000380140000C014000000140FEE7FEE75A
:1019BC00FEE7FEE7FEE770477047704708B500F09A
:1019CC00D5FC08BD82B00E4B9A6942F001029A61B7
:1019DC009A6902F001020092009ADA6942F0805290
:1019EC00DA61DB6903F080530193019B054A53686C
:1019FC0023F0E06343F00073536002B0704700BF04
:101A0C00001002400000014003685A6912F4806F14
:101A1C0001D1002070476FF480625A610023036388
:101A2C00202280F83D2080F83E30026C42F0040207
:101A3C00026480F83C30012070472DE9F0410646E5
:101A4C000C46174698463BE000F09CFC069BC01ADF
:101A5C00404502D8B8F1000F32D1012D18D03368AF
:101A6C009B6924EA03039BB2B3FA83F35B099F429D
:101A7C0026D100233363202286F83D2086F83E30A1
:101A8C00326C42F02002326486F83C30012027E0B0
:101A9C0033685B6924EA03039BB2B3FA83F35B09F3
:101AAC00E5E733685B6924EA030C1FFA8CFCBCFA8B
:101ABC008CFC4FEA5C1C674511D1B8F1FF3FC3D1D8
:101ACC00C4F30745012DECD033689B6924EA030C61
:101ADC001FFA8CFCBCFA8CFC4FEA5C1CEBE7002078
:101AEC00BDE8F0812DE9F84305460E46904699462F
:101AFC0053E01A6842F400721A602B686FF480622B
:101B0C005A6100232B63202285F83D2085F83E3056
:101B1C002A6C42F004022A6485F83C3001204AE029
:101B2C0000F030FCA0EB0900404502D8B8F1000FE2
:101B3C0033D1012F17D02B689B6926EA03039BB284
:101B4C00003B18BF012343B300232B63202285F8ED
:101B5C003D2085F83E302A6C42F020022A6485F83C
:101B6C003C30012027E02B685B6926EA03039BB21B
:101B7C00003B18BF0123E6E72B689C6926EA0404A6
:101B8C00A4B2003C18BF0124A4B12B685A6912F40A
:101B9C00806FAED1B8F1FF3FC2D1C6F30747012F1A
:101BAC00EAD12B685C6926EA0404A4B2003C18BF95
:101BBC000124E9E70020BDE8F88370B504460D4622
:101BCC00164623685B6913F0800F21D12046FFF77E
:101BDC001BFFF8B9B5F1FF3FF3D000F0D3FB801B2E
:101BEC00A84201D8002DECD123685B6913F0800F5B
:101BFC00E7D100232363202284F83D2084F83E3073
:101C0C00226C42F02002226484F83C30012000E077
:101C1C00002070BD0120FCE72DE9F04784B004469C
:101C2C000D46164699460C9FDDF834800268136801
:101C3C0043F4806313600368196841F48071196080
:101C4C00CDF800803B4600224FF00111FFF7F5FE66
:101C5C0070B95FFA85FA236805F0FE051D614346ED
:101C6C003A4641492046FFF73DFF68B1012008E0A4
:101C7C0023681B6813F4807F02D04FF40073236435
:101C8C00032004B0BDE8F0870023039323685A694E
:101C9C0003929B690393039B424639462046FFF708
:101CAC008CFF80B9B9F1010F18D12368F6B21E610F
:101CBC00424639462046FFF780FF68B3236C042B5D
:101CCC0024D00120DDE7236C042B01D00120D8E7C0
:101CDC002268136843F400731360F7E72368320A31
:101CEC001A61424639462046FFF767FF18B9236848
:101CFC00F6B21E61DCE7236C042B01D00120C0E797
:101D0C002268136843F400731360F7E722681368C2
:101D1C0043F400731360D4E72268136843F48073B0
:101D2C001360CDF800803B4600224FF00111204695
:101D3C00FFF783FE68B922684AF00103136143463A
:101D4C003A4609492046FFF7CDFE002899D00120DC
:101D5C0097E723681B6813F4807F02D04FF400735D
:101D6C00236403208DE700BF0200010070B5044618
:101D7C000D46164614E06FF010025A6100232363DF
:101D8C00202284F83D2084F83E30226C226484F8B2
:101D9C003C30012025E023685B6913F0400F10D024
:101DAC002368586910F0400F1AD1586910F0100FC1
:101DBC00E1D100F0E7FA801BA842ECD8002DEFD15E
:101DCC00E9E700232363202284F83D2084F83E3089
:101DDC00226C42F02002226484F83C30012000E0A6
:101DEC00002070BD002800F0CC8070B5044690F83F
:101DFC003D30002B77D0242384F83D3022681368C3
:101E0C0023F0010313602268136843F4004313604A
:101E1C002268136823F40043136000F0D1FD62685C
:101E2C005A4B9A4264D85A4B98428CBF00230123D8
:101E3C00002B40F0A8805749A1FB00318B0C256882
:101E4C006A6822F03F0242EA91426A6021680A6A9B
:101E5C0022F03F0266684D4DAE424FD8013313431A
:101E6C000B622168CA6922F44F4222F0FF026668B5
:101E7C00464B9E424CD8431E7600B3FBF6F301331F
:101E8C0040F6FC70034278D0C3F30B031343CB61D1
:101E9C0021680B6823F0C003E269206A02431343F4
:101EAC000B6021688B6823F4034323F0FF03226942
:101EBC00E068024313438B602168CB6823F0FF0377
:101ECC006269A06902431343CB602268136843F034
:101EDC000103136000202064202384F83D3020632C
:101EEC0084F83E0070BD80F83C30FFF7CFFC82E7F1
:101EFC00294B98428CBF0023012399E74FF4967528
:101F0C0005FB03F3254DA5FB03539B090133A6E702
:101F1C00A368BBB9451E06EB460CB5FBFCF50135B9
:101F2C00C5F30B05B5FA85F56D0945BBC3B9013889
:101F3C0006EB4603B0FBF3F30133C3F30B0343F49B
:101F4C000043A3E7451E06EB860C0CEB8C0CB5FB93
:101F5C00FCF50135C5F30B05B5FA85F56D09E4E71C
:101F6C00013806EB860303EB8303B0FBF3F3013379
:101F7C00C3F30B0343F4404388E7042386E70123B0
:101F8C0084E7012070470120ACE700BFA086010068
:101F9C007F841E0083DE1B43FF083D00D34D62107F
:101FAC002DE9F04389B004460F4690469946129E9F
:101FBC000023079300F0E6F9054694F83D00C0B203
:101FCC00202804D00227384609B0BDE8F0830095DC
:101FDC001923012281492046FFF72FFD002840F0EC
:101FEC007C8194F83C30012B00F07981012384F83A
:101FFC003C3023681A6812F0010F03D11A6842F0C2
:10200C0001021A602268136823F400631360222310
:10201C0084F83D30402384F83E3000232364109B29
:10202C006362BDF844306385638D23856C4BE3623A
:10203C00019500964B46424639462046FFF7ECFD8B
:10204C000746002840F04D81238D5BB9039323682C
:10205C005A6903929A690392039A1A6842F40072BD
:10206C001A60F2E0012B0FD0022B21D022681368EA
:10207C0043F4806313600023069323685A69069225
:10208C009B690693069BE0E02268136823F4806347
:10209C00136072B60023049323685A6904929A69F8
:1020AC000492049A1A6842F400721A6062B6CCE088
:1020BC002268136843F40063136072B6002305931F
:1020CC0023685A6905929A690592059A1A6822F44E
:1020DC0080621A6062B6B8E02A4631462046FFF7A5
:1020EC0045FE002840F0FF8023681A69636A1A7065
:1020FC00636A01336362238D013B2385638D9BB23D
:10210C00013B9BB26385A0E0009533460022354924
:10211C002046FFF792FC002840F0E9802268136803
:10212C0023F48063136072B623681A69636A1A70A9
:10213C00636A01336362238D013B2385638D9BB2FC
:10214C00013B9BB26385284B1B68DB08274AA2FB2B
:10215C0003231B0A03EB8303C3EBC3030793079B04
:10216C00013B0793079B002B28D023685A6912F078
:10217C00040FF4D01A6842F400721A6023681A69CA
:10218C00636A1A70636A01336362238D013B238592
:10219C00638D9BB2013B9BB2638562B623681A695F
:1021AC00636A1A70636A01336362238D013B238572
:1021BC00638D9BB2013B9BB2638546E02363202277
:1021CC0084F83D2084F83E30226C42F020022264D8
:1021DC0062B684F83C300127F5E600BF020010001F
:1021EC000000FFFF040001006C00002089B5F8140A
:1021FC002A4631462046FFF7B9FD002879D12368DD
:10220C001A69636A1A70636A01336362228D013A38
:10221C0092B22285638D9BB2013B9BB2638523688E
:10222C00596911F0040F10D0032A48D023681A6999
:10223C00636A1A70636A01336362238D013B2385E1
:10224C00638D9BB2013B9BB26385238D002B3BD0EE
:10225C00032BCDD8012B3FF43FAF022B7FF454AFAF
:10226C0000953346002224492046FFF7E6FB002860
:10227C003BD172B62268136843F400731360236871
:10228C001A69636A1A70636A01336362238D013BB6
:10229C002385638D9BB2013B9BB2638562B6236839
:1022AC001A69636A1A70636A01336362238D013B96
:1022BC002385638D9BB2013B9BB26385C5E71A688E
:1022CC0022F480621A60B1E7202384F83D300023A9
:1022DC0084F83E3084F83C3075E6022773E602271A
:1022EC0071E601276FE601276DE601276BE60127F2
:1022FC0069E6012767E600BF0400010010B504463B
:10230C000E4B18784FF47A73B3FBF0F30C4A106849
:10231C00B0FBF3F000F0D0FC68B90F2C01D9012010
:10232C000AE0002221464FF0FF3000F08DFC054BF7
:10233C001C60002000E0012010BD00BF64000020E4
:10234C006C0000206800002008B5074A136843F0B1
:10235C0010031360032000F065FC0F20FFF7CEFF85
:10236C00FFF730FB002008BD00200240034A116833
:10237C00034B1B780B441360704700BF34010020E3
:10238C0064000020014B1868704700BF3401002026
:10239C0038B50446FFF7F6FF0546B4F1FF3F02D00F
:1023AC00044B1B781C44FFF7EDFF401BA042FAD3F3
:1023BC0038BD00BF6400002082B0084B1B68084A7F
:1023CC00A2FB03235B0A00FB03F3019300BF019BF9
:1023DC005A1E0192002BF9D102B070476C000020FC
:1023EC00D34D6210002800F0F18170B582B0044624
:1023FC00036813F0010F2CD0994B5B6803F00C03AE
:10240C00042B1DD0964B5B6803F00C03082B12D0E9
:10241C006368B3F5803F41D0002B55D103F1804365
:10242C0003F504331A6822F480321A601A6822F415
:10243C0080221A6037E08A4B5B6813F4803FE7D048
:10244C00874B1B6813F4003F03D06368002B00F02C
:10245C00BF81236813F0020F75D0814B5B6813F0BA
:10246C000C0F5FD07E4B5B6803F00C03082B54D031
:10247C002369002B00F08A807A4B01221A60FFF747
:10248C0081FF0546764B1B6813F0020F75D1FFF7E1
:10249C0079FF401B0228F5D903209EE1704A13688E
:1024AC0043F480331360636843B3FFF76BFF054657
:1024BC006B4B1B6813F4003FCBD1FFF763FF401B42
:1024CC006428F5D9032088E1B3F5A02F09D0644B1B
:1024DC001A6822F480321A601A6822F480221A6078
:1024EC00E1E703F18043A3F53C331A6842F4802200
:1024FC001A601A6842F480321A60D4E7FFF742FF80
:10250C000546574B1B6813F4003FA2D0FFF73AFF68
:10251C00401B6428F5D903205FE1514B5B6813F431
:10252C00803FA5D14E4B1B6813F0020F03D02369DB
:10253C00012B40F04F814A4A136823F0F80361697C
:10254C0043EAC1031360236813F0080F33D0A36967
:10255C00002B5CD0434B0122C3F88024FFF712FF01
:10256C0005463F4B5B6A13F0020F21D1FFF70AFFC0
:10257C00401B0228F5D903202FE1394A136823F0B8
:10258C00F803616943EAC1031360DCE7354B0022B1
:10259C001A60FFF7F7FE0546314B1B6813F0020F6C
:1025AC00D1D0FFF7EFFE401B0228F5D9032014E130
:1025BC000120FFF701FF236813F0040F00F0968051
:1025CC00274BDB6913F0805F34D1254BDA6942F07D
:1025DC008052DA61DB6903F080530193019B012582
:1025EC00214B1B6813F4807F26D0E368012B3DD070
:1025FC00002B53D103F1804303F504331A6A22F004
:10260C0001021A621A6A22F004021A6233E0154BB4
:10261C000022C3F88024FFF7B5FE0546104B5B6A19
:10262C0013F0020FC7D0FFF7ADFE401B0228F5D9FF
:10263C000320D2E00025D3E70B4A136843F48073E0
:10264C001360FFF79FFE0646074B1B6813F4807F51
:10265C00CBD1FFF797FE801B6428F5D90320BCE093
:10266C000010024000004242007000405F4A136AB2
:10267C0043F001031362E36833B3FFF783FE0646AE
:10268C005A4B1B6A13F0020F2FD1FFF77BFE801BF6
:10269C0041F288339842F3D903209EE0052B09D0F0
:1026AC00524B1A6A22F001021A621A6A22F00402D0
:1026BC001A62E0E74D4B1A6A42F004021A621A6A77
:1026CC0042F001021A62D6E7FFF75CFE0646474B62
:1026DC001B6A13F0020F08D0FFF754FE801B41F267
:1026EC0088339842F3D9032077E0E5B9E369002BEE
:1026FC0072D03E4A526802F00C02082A56D0022BC5
:10270C0017D03B4B00221A66FFF73CFE0446374BB2
:10271C001B6813F0007F47D0FFF734FE001B022824
:10272C00F5D9032059E0314AD36923F08053D361A2
:10273C00DCE72F4B00221A66FFF724FE05462B4BD5
:10274C001B6813F0007F06D0FFF71CFE401B02280D
:10275C00F5D9032041E0236AB3F5803F1AD0234911
:10276C004B6823F47413226A606A024313434B6070
:10277C001F4B01221A66FFF705FE04461B4B1B6814
:10278C0013F0007F0ED1FFF7FDFD001B0228F5D9D9
:10279C00032022E0154A536823F40033A1680B434D
:1027AC005360DCE7002018E0002016E0012B16D067
:1027BC000E4B5B6803F48031226A914211D103F411
:1027CC007013626A93420ED1002006E0012070471C
:1027DC00012002E0012000E0002002B070BD0120C9
:1027EC00FBE70120F9E70120F7E700BF00100240EA
:1027FC00000042420F4B5B6803F00C02082A01D028
:10280C000D487047C3F383420C49885C13F4803F36
:10281C000BD0084B5B68C3F34043094AD35C064AB0
:10282C0002FB00F0B0FBF3F07047064B03FB00F02B
:10283C00704700BF0010024000127A0054300008AC
:10284C006430000800093D00002800F0A08070B53D
:10285C000D460446524B1B6803F007038B420BD208
:10286C004F4A136823F007030B431360136803F0FC
:10287C0007038B4240F08D80236813F0020F17D0B2
:10288C0013F0040F04D0474A536843F4E0635360D9
:10289C00236813F0080F04D0424A536843F4605382
:1028AC005360404A536823F0F003A1680B43536014
:1028BC00236813F0010F31D06368012B20D0022B59
:1028CC0025D0384A126812F0020F64D035494A6894
:1028DC0022F0030213434B60FFF754FD0646314BC5
:1028EC005B6803F00C036268B3EB820F16D0FFF742
:1028FC0049FD801B41F288339842F0D9032045E012
:10290C00284A126812F4003FE0D101203EE0254A2B
:10291C00126812F0007FD9D1012037E0204B1B68E0
:10292C0003F00703AB420AD91D4A136823F00703CF
:10293C002B431360136803F00703AB422DD12368BC
:10294C0013F0040F06D0174A536823F4E063E168D0
:10295C000B435360236813F0080F07D0114A5368D8
:10296C0023F46053216943EAC1035360FFF742FF2C
:10297C000C4B5B68C3F303130B4AD35CD8400B4B73
:10298C0018600B4B1868FFF7B9FC002070BD0120D4
:10299C0070470120FAE70120F8E70120F6E700BFB5
:1029AC000020024000100240683000086C0000203B
:1029BC0068000020014B1868704700BF6C000020B5
:1029CC0008B5FFF7F7FF044B5B68C3F30223034A18
:1029DC00D35CD84008BD00BF00100240783000081E
:1029EC0008B5FFF7E7FF044B5B68C3F3C223034A48
:1029FC00D35CD84008BD00BF0010024078300008FE
:102A0C0070B582B00024A446A6E0804DAA4210D036
:102A1C0007D97F4DAA420CD005F58035AA4208D0C3
:102A2C0013E0A5F58015AA4203D005F57025AA423E
:102A3C0007D18A68002A58D0012A51D04361082452
:102A4C0003E0A5F58015AA42F3D0BEF1FF0F4ED8D6
:102A5C000646BEF1FF0F4CD84FEA8C0233680F25A7
:102A6C00954023EA050304FA02F2134333604B68E2
:102A7C0013F0805F6ED0674B9A6942F001029A6145
:102A8C009B6903F001030193019B4FEA9C02951C87
:102A9C00614B53F825600CF003039D000F23AB40F2
:102AAC0026EA03065D4B984229D003F580639842D1
:102ABC0000F08E8003F58063984200F08B8003F564
:102ACC008063984219D004231AE0CC68BDE7CC6827
:102ADC000434BAE7CC680834B7E7CC680C34B4E7F4
:102AEC0003610824B1E70024AFE70424ADE7061D19
:102AFC00AFE7ACF108029200B0E7032300E000233B
:102B0C00AB4033430232444D45F822304B6813F44A
:102B1C00801F61D0424A936843EA0E0393604B686E
:102B2C0013F4001F5ED03E4AD36843EA0E03D36011
:102B3C004B6813F4003F5BD0394A536843EA0E03E9
:102B4C0053604B6813F4803F58D0354A136843EAFE
:102B5C000E0313600CF1010C0A6832FA0CF353D01B
:102B6C00012303FA0CF302EA030E33EA0202F1D159
:102B7C004A68122A3FF649AF122A3FF666AF01A502
:102B8C0055F822F03F2A0008D72A0008E12A00084D
:102B9C00F32A0008572A0008572A0008572A000869
:102BAC00572A0008572A0008572A0008572A0008F5
:102BBC00572A0008572A0008572A0008572A0008E5
:102BCC00572A0008572A0008DB2A0008E72A0008C1
:102BDC00012395E7022393E7114A936823EA0E0336
:102BEC0093609CE70E4AD36823EA0E03D3609FE7F9
:102BFC000B4A536823EA0E035360A2E7084A136892
:102C0C0023EA0E031360A5E702B070BD000022108A
:102C1C00000031100010024000000140000801408B
:102C2C0000040140074AD36823F4E0631B041B0C27
:102C3C00000200F4E060034343F0BF6343F400334D
:102C4C00D360704700ED00E000B5194BDB68C3F3AF
:102C5C000223C3F1070CBCF1040F28BF4FF0040C86
:102C6C0003F1040EBEF1060F18D9033B4FF0FF3EE3
:102C7C000EFA0CFC21EA0C0199400EFA03F322EA3D
:102C8C000303194300280BDB0901C9B200F16040B2
:102C9C0000F5614080F800135DF804FB0023E5E7C4
:102CAC0000F00F000901C9B2024B1954F4E700BF40
:102CBC0000ED00E014ED00E00138B0F1807F0BD2A4
:102CCC004FF0E0235861054AF02182F823100020D0
:102CDC00986107221A6170470120704700ED00E0EF
:102CEC00026802F10C0353E8003F23F490730C329A
:102CFC0042E800310029F3D1026802F1140353E8D1
:102D0C00003F23F00103143242E800310029F3D1D3
:102D1C00036B012B05D0202380F842300023036382
:102D2C007047026802F10C0353E8003F23F01003D4
:102D3C000C3242E800310029F3D1ECE710B504461F
:102D4C000268136923F44053C1680B431361836811
:102D5C000269134342691A430168CB6823F4B053E8
:102D6C0023F00C031343CB600268536923F44073C4
:102D7C0081690B4353610268134B9A4220D0FFF7D1
:102D8C001FFE024602EB820202EB820263689B008A
:102D9C00B2FBF3F20D48A0FB02314909642303FB9B
:102DAC0011231B013233A0FB03235B0903F0F00258
:102DBC0002EB011203F00F03216813448B6010BD6A
:102DCC00FFF70EFE0246DDE7003801401F85EB5190
:102DDC002DE9F04383B005460E4617469946DDF8BB
:102DEC0028802C68246836EA04030CBF4FF0010CD1
:102DFC004FF0000CBC4528D1B8F1FF3FF1D0FFF7E4
:102E0C00C1FAA0EB0900404523D8B8F1000F22D03D
:102E1C002B68DA6812F0040FE3D0802EE1D0402E3C
:102E2C00DFD01A6812F0080FDBD0002401941A6866
:102E3C0001925B680193019B2846FFF751FF082321
:102E4C006B6485F84040012000E0002003B0BDE831
:102E5C00F0830320FAE70320F8E760B310B50446CB
:102E6C0090F8413013B3242384F841302268D3689E
:102E7C0023F40053D3602046FFF760FF22681369E8
:102E8C0023F4904313612268536923F02A0353619E
:102E9C002268D36843F40053D3600020606420237D
:102EAC0084F8413084F84230606310BD80F84030C3
:102EBC00FEF738FDD7E7012070472DE9F04182B0CD
:102ECC001E4690F84130DBB2202B56D104460D46FD
:102EDC009046002955D00AB901204FE000234364E5
:102EEC00212380F84130FFF74DFA0746A4F82480DF
:102EFC00A4F82680A368B3F5805F02D04FF00008D9
:102F0C0014E023692BB34FF000080FE0202384F862
:102F1C004130032032E038F8023B2268C3F3080347
:102F2C005360E28C92B2013A92B2E284E38C9BB28F
:102F3C0093B100963B46002280212046FFF748FFC4
:102F4C000028E3D1002DE6D015F8012B23685A6038
:102F5C00E7E7A8460025E9E700963B46002240211A
:102F6C002046FFF735FF18B9202384F8413005E0DF
:102F7C00202384F84130032000E0022002B0BDE899
:102F8C00F0810120FAE7704710B503460C4A0D4951
:102F9C000D48006840B10C4800680344521A934233
:102FAC0006D8094A136010BD0748084C0460F2E7C4
:102FBC00FDF7EAF80C2303604FF0FF30F3E700BF96
:102FCC0000500020000400003801002040010020C7
:102FDC00FFF7D9FF0B480C490C4A002302E0D458E8
:102FEC00C4500433C4188C42F9D3094A094C002349
:102FFC0001E013600432A242FBD3FDF7CBF8FEF7DD
:10300C009FFB70470000002070000020C4300008B7
:10301C00700000203C010020FEE70000F8B500BF66
:10302C00F8BC08BC9E467047F8B500BFF8BC08BC9D
:04303C009E467047F5
:103040004572726F722052780D0A00002564204389
:103050000D0A000002030405060708090A0B0C0DFF
:103060000E0F101001020000000000000000000020
:10307000010203040607080900000000010203041E
:10308000232D302B20000000686C4C0065666745DE
:103090004647000030313233343536373839414213
:1030A0004344454600000000303132333435363772
:0C30B0003839616263646566000000004E
:0430BC007501000892
:0430C0004D010008B6
:1030C40004000020000000000000000000000000D8
:1030D40000000000000000000000000000000000EC
:1030E40000000000000000000000000000000000DC
:1030F40000000000000000000000000000000000CC
:1031040000000000000000000000000000000000BB
:1031140000000000000000000000000000000000AB
:1031240000000000010000001000000000127A00FE
:0400000508002FDDE3
:00000001FF
